:1000000000000110E500000075010000590100002A
:100010007501000075010000750100007501000008
:10002000750100007501000075010000D336000065
:100030007501000075010000D7360000DB360000B6
:10004000F95E0000F95E0000F95E0000F95E000054
:10005000F95E0000F95E0000F95E0000F95E000044
:10006000F95E0000F95E0000F95E0000F95E000034
:10007000F95E0000F95E0000F95E0000F95E000024
:10008000F95E0000F95E0000F95E0000F95E000014
:10009000F95E0000F95E0000F95E0000F95E000004
:1000A000F95E0000F95E0000F95E0000F95E0000F4
:1000B000F95E0000F95E0000F95E0000F95E0000E4
:1000C000F95E0000F95E0000F95E0000F95E0000D4
:1000D000F95E0000F95E0000F95E0000F95E0000C4
:1000E000F95E000008B500F057F900F073F900F070
:1000F0009DF800F079F900F095F802F049FF02F060
:1001000073FE00F0BFF840B141F28734002502F0E1
:100110006BFF8D4208BF8442F9D200F082F918B912
:100120000849094808F0C8F80649084808F0C4F822
:1001300006F0E2FB064B07481B68D96807F040F859
:10014000FEE700BFE8CB0000F4CB000021CC0000AC
:10015000A801001039CC00001EF0040F0CBFEFF313
:100160000880EFF309808169004A1047D10100003F
:100170007047FFFF38B50F4C0F4B10481D782368B0
:10018000D96807F01DF823680D49D8682A4606F09B
:100190005FFF0F2D236807D80A4A0B4952F8252024
:1001A000D86806F055FFFEE7D968084807F008F858
:1001B000F9E700BFA801001004ED00E074CC0000D6
:1001C0008ECC000080CD0000C8CC0000E6CC000042
:1001D00010B5044600F04AF8236883606368C36082
:1001E000A3680361E3684361236943626369013B78
:1001F000C361A3698361E3690362BFF34F8F05495C
:10020000054BCA6802F4E0621343CB60BFF34F8F23
:1002100000BFFDE700ED00E00400FA05004870476C
:1002200000D8B8050048704700D8B8050E4B072223
:10023000C3F88420AA210122C3F88020C3F88C10BF
:100240005521C3F88C10C3F8A821D3F88820520593
:10025000FBD51A6822F4704242F480421A6040F2E0
:100260000112C3F80421704700C00F400248034A3E
:10027000034BC0E90023704700000020EFBEADDE55
:100280001041522138B5224C224B22689A423DD16E
:100290006268214B9A4239D1204D21482B68D96898
:1002A00006F08EFF2B68A2691E49D86806F0D0FEC2
:1002B0002B68E2691C49D86806F0CAFE2B68226ADE
:1002C0001A49D86806F0C4FE2B68A2681849D86895
:1002D00006F0BEFE2B68E2681649D86806F0B8FE44
:1002E0002B6822691449D86806F0B2FE2B6862694F
:1002F0001249D86806F0ACFE2B681148D96806F0A0
:100300005FFF01200023C4E9003338BD0020F9E776
:1003100000000020EFBEADDE10415221A801001008
:10032000C0CD000013CE000022CE000031CE000070
:1003300040CE00004FCE00005ECE00006DCE00002B
:100340007CCE00000E4A136810B50E4C1918A1425D
:10035000116002D30C4CA1420BD313600B4A0C4921
:1003600013681844884208D30A49884205D21060AD
:1003700001E0002BF2D0184610BD0023FBE700BFC0
:100380000000001028000020008000200400001061
:10039000F824001000000110094A0A4B0A498B4258
:1003A00005D30A4B0A4A0021934205D3704712F83D
:1003B000010B03F8010BF2E703F8011BF4E700BFA0
:1003C0004CE70000000000107C03001080030010C8
:1003D000F8240010034AD2F8883043F47003C2F8BE
:1003E0008830704700ED00E0044800232021C21847
:1003F0000133292B82F80013F9D1704700E100E0A6
:1004000008B52A2219233821022005F08FFB0D227E
:100410003821022005F05EFBA0F12A035842584122
:1004200008BDFFF7EDBF42884378007843EA022316
:1004300040EA032070470B0A017043700B0C090E51
:100440008370C170704710B5024410F8013B11F879
:10045000014B9042A3EB040301D0002BF5D01846CA
:1004600010BDC3690239023B8B4283BF4389006BD5
:1004700001FB030000207047024600F10B01002041
:10048000C30143EA500312F8010B50FA83F38A4286
:10049000D8B2F5D1704702684AB1134613F8011B70
:1004A0001F290BD93A29F9D1911C8B4202D04FF068
:1004B000FF3070471278302AF9D10360002070476E
:1004C00001380A4411F8013B00F8013F9142F9D18B
:1004D0007047CA7E8B7E032843EA022301BF487D12
:1004E0000A7D42EA002243EA024318467047C2F3FB
:1004F00007238A76CB760378032B01BF120C0A758B
:10050000120A4A75704770B500F13806426B04460E
:1005100001233146407801F078FC054688B9616BCB
:10052000A36A226AE070CB1A934208D2A378022B06
:1005300005D10A4401233146607801F066FC284663
:1005400070BD0125FBE738B5436B8B4204460D4671
:1005500019D0C3788BB901232A4604F13801607899
:1005600001F03FFC002818BF4FF0FF3503466563DC
:100570000CBF03460123184638BDFFF7C4FF0346EE
:100580000028F8D1E7E70023F5E7FFFF38B500239F
:10059000C3704FF0FF3343630546FFF7D4FF0446B3
:1005A00018BB95F8372295F8363243EA02234AF60B
:1005B000552293421BD195F83830EB2B03D01833DA
:1005C000DBB2012B15D803220B4905F16E00FFF7B2
:1005D0003AFF40B10522094905F18A00FFF733FFD0
:1005E000002818BF0224204638BD0424FBE703245A
:1005F000F9E70224F7E700BFDDCF0000E1CF0000FC
:100600002DE9F043002385B00B600F461546FFF738
:1006100042FF061EC0F23981A44B53F82640002C3D
:1006200000F03581206901F040FB002800F03181A5
:100630003C60237805F0FE056BB1607801F0CCFBDF
:10064000C10708D41DB110F0040500D00A252846C2
:1006500005B0BDE8F0830023F0B22370607001F0B4
:10066000ADFBC20700F117810DB14307EED40021A5
:100670002046FFF78BFF022840F0EE806F4604F51E
:10068000FF7104F23E263D4611F8040C10B10846F5
:10069000FFF7C9FE10318E4245F8040BF4D1002556
:1006A00057F8046B002E00F0CE8031462046FFF74D
:1006B0006DFF012800F2C88094F8442094F843307C
:1006C00043EA0223B3F5007F40F0CA8094F84F302C
:1006D00094F84E5055EA032504D104F15C00FFF76D
:1006E000A2FE054694F8481025624B1E012BA1700E
:1006F00000F2B68094F845901FFA89F36381002BCD
:1007000000F0AE8009F1FF3313EA090F40F0A88032
:1007100094F84A3094F8497047EA03273FB21FFA29
:1007200087F818F00F0FA4F8088040F0998094F82B
:100730004C3094F84B0050EA032003D104F15800E8
:10074000FFF771FE94F8472094F8463053EA0223ED
:1007500000F0868005FB01FC03EB18126244904216
:100760007ED3801A4845B0FBF9F179D350488142D5
:1007700076D84FF6F570814240F28F804FF0030932
:10078000023133443244B9F1030FE1616662A3627E
:10079000226369D194F8632094F8623043EA02231B
:1007A0001F433FB2002F5BD104F16400FFF73BFE13
:1007B000E062890001F2FF11B5EB512F50D34FF0E9
:1007C000FF33C4E90533B9F1030F4FF08003237100
:1007D0002FD194F8692094F8683043EA0223012B62
:1007E00027D1711C2046FFF7AEFE10BB94F83722CC
:1007F00094F83632207143EA02234AF65522934296
:1008000017D104F13800FFF70EFE2A4B984210D1A1
:1008100004F50770FFF707FE274B984209D104F54E
:100820000870FFF700FEA06104F50970FFF7FBFDFB
:100830006061224A84F80090138801339BB21380D0
:10084000E380002503E703200135042D7FF428AF62
:10085000042805D10125FAE60428FBD0012801D996
:100860000D25F4E6002627E7B8F1000FF8D0634421
:10087000B9F1020FE3624FEA41031BBF5B1801F0BD
:100880000101194601EB530194E70B25DFE60C2526
:10089000DDE60F25DBE60325D9E640F6F579494587
:1008A0008CBF4FF002094FF0010969E78003001087
:1008B000F5FFFF0F525261417272416184030010D3
:1008C00001292DE9F04705460C46174672D9C36940
:1008D0008B426FD90378022B3FD0032B50D0012BD2
:1008E00068D101EB5108816A01EB5821FFF72BFE1B
:1008F000064638BB05F1380908F1010AC8F30808B3
:1009000014F001041FBF19F8083003F00F023B0177
:1009100003F0F00314BF1343FBB209F80830A96ACF
:100920000123EB7001EB5A212846FFF70CFE064627
:1009300040B9CAF3080A44B1C7F3071709F80A70A7
:100940000123EB703046BDE8F08719F80A30C7F391
:10095000032723F00F031F43F0E7816A01EB142103
:10096000FFF7F1FD06460028ECD1640005F13803DD
:1009700004F4FF741A191F55C7F307275770DFE7F0
:10098000816A01EBD411FFF7DEFD06460028D9D1BC
:10099000A40005F1380304F4FE741C442046FFF75C
:1009A00042FD27F0704700F0704139432046FFF7C1
:1009B00042FDC5E70226C5E70129F8B505460C4604
:1009C00052D9C36999424FD20378022B29D0032B05
:1009D00038D0012B48D101EB5106816A01EB562139
:1009E000FFF7B1FD10B14FF0FF30F8BD771CA96AD9
:1009F000C6F308062E4401EB5721284696F83860C6
:100A0000FFF7A1FD0028EED1C7F308073D44E30737
:100A100095F8380046EA00204CBF0009C0F30B00EF
:100A2000E3E7816A01EB1421FFF78DFD0028DAD19D
:100A30006400383504F4FF742B19285D5B7840EAB4
:100A40000320D2E7816A01EBD411FFF77CFD002877
:100A5000C9D1A40005F1380004F4FE742044FFF766
:100A6000E2FC20F07040C0E70120BEE7B1F5001FB6
:100A7000F8B506460D4601D30220F8BDCA06FBD1E3
:100A8000826804683161CAB92378022B01D9E36A0C
:100A90009BB92389B3EB551FEED9E36AB361B36900
:100AA0007261002BE8D003EB55233834C5F30805F9
:100AB0002C44B361F4610020DFE71A4667897F02A6
:100AC000BD42114604D22046FFF7CBFCB061E6E7F9
:100AD0003068FFF771FF431C024606D00128CBD9CE
:100AE000E3698342C8D9ED1BEAE70120C5E72DE998
:100AF000F041804605680F4649B96E69C6B1EB6999
:100B0000B34298BF0126AB69A3B9002406E028468A
:100B1000FFF752FF0128044603D801242046BDE810
:100B2000F081421C51D0EB698342F7D83E46EAE798
:100B30000126E8E7BE4215D1EB69D8F80000741C25
:100B4000A34298BF02242146FFF736FF0128E4D0D4
:100B5000431C3AD0D8B16B69012B03D9EA6993429F
:100B600038BF1E463446EB690134A34202D8012E39
:100B7000CBD902242146D8F80000FFF71DFF40B171
:100B80000128CAD0013020D0B442ECD1BDE7002CFE
:100B9000E8D04FF0FF3221462846FFF791FE90B98A
:100BA00057B9D5E90632023A93426C6110D92B79D4
:100BB00043F001032B71B1E7224639462846FFF77F
:100BC0007FFE0028EDD00128A7D14FF0FF34A5E724
:100BD000013BAB61EBE7F8B50D46012D0746114629
:100BE00004682BD9E369AB4228D92AB14FF0FF3210
:100BF0002046FFF765FE30B929463868FFF7DCFE6E
:100C0000064608B90020F8BD012817D0431C17D0AC
:100C1000002229462046FFF753FE0028F3D1D4E9ED
:100C20000632911E8B4205D20133A361237943F032
:100C300001032371B2423546DED8E3E70220E2E742
:100C40000120E0E740B1A1F10B03012B04D90F29EA
:100C500002D0006901F032B8704738B50D4604463D
:100C6000F0B10368DBB11A78B2B18188DA889142B9
:100C700012D1186901F019F8034698B12368587821
:100C800001F0AAF810F0010002D124682C6038BDF0
:100C900000212068FFF7D6FF09200024F6E71C4654
:100CA0000920F3E70F201C46F0E72DE9F047002666
:100CB000D0F800A08E75836980460C46002B00F0AA
:100CC0009080C36A01336BD1D8F81C1000224D1EEE
:100CD00010462E2615F8013F202B00F101000CD004
:100CE000052B08BFE523092804D10B2A9EBFA718AE
:100CF00001327E72A71801327B720B28EAD1A31849
:100D000000205872A37D002B5AD1002A4FD004F145
:100D1000090010F8012B002A4CD092B2A2F1410533
:100D2000192D07D8082B0E7B8CBF102508252E42C5
:100D300018BF203202730133EBE7B9F1000F05D180
:100D400000F520539BB2B3F5006F12D340F2B511FA
:100D500040EA094000F0B8FFFF28C7F1800518D924
:100D6000012D20D9E319020A9A75D87502231F4470
:100D7000002002368146DAF80C30985B0028DCD17E
:100D80003D46B9F1000F18BF002525440023AB757F
:100D90009AE750B1002DF4D0E31998750123E6E7E6
:100DA000B1463746E7E70025EBE70546E9E73F238D
:100DB000A3750123234400229A750B7B03B9637248
:100DC000CB7A237201F11C00FFF72DFB2060CA7D56
:100DD0008B7D43EA0223E3804A7E0B7E43EA0223B3
:100DE000A380BDE8F087F8B5C37804460D46C3B9C3
:100DF00029462046FFF735FB04F1380607466063B5
:100E000004F50E723346002103F8011B9342FBD117
:100E1000002563899D420AD36089401B18BF0120C9
:100E2000F8BDFFF770FB0028E2D00120F8E70123AE
:100E30007A193146607800F0E8FF0028ECD10135DE
:100E4000E7E72DE9F843076905682037B7F5001F84
:100E500024BF0023836183690446894673B1C7F3C5
:100E60000808B8F1000F39D141690133836139B9FC
:100E70002B89B3EB571F31D80023A36104200BE06B
:100E80006B89013B13EA572328D12846FFF794FDCD
:100E90000128064602D80220BDE8F883421C01D191
:100EA0000120F9E7EB69834212D8B9F1000FE3D0D2
:100EB00061692046FFF71BFE0646A8B10128EAD06B
:100EC000431CEDD001462846FFF78DFF0028E7D1EF
:100ED000666131462846FFF7C4FAA06138354544BB
:100EE0002761E5610020D7E70720D5E72DE9F04F1E
:100EF000002185B00446D0F80080FFF7B7FD814699
:100F0000002840F08C804FF0FF334FF0FF0AE3627F
:100F100057460093A1694046FFF715FB814600281C
:100F20007DD1E5692E78002E7DD0EA7AE52E02F09B
:100F30003F03A37103D0100704D50F2B04D0009BEF
:100F4000E36252E00F2B57D194F82B30590642D46C
:100F5000720648D5236995F80DA0E36206F0BF0636
:100F60006B7B534541D1EA7EAB7E53EA02233CD1F1
:100F70002F78D8F80CB007F03F077B1E0D275F4392
:100F80002A4B012113F8012BA81815F8029040787C
:100F900049EA002959B37F2F039326D8484600F029
:100FA000C7FE7A1C02903BF81700019200F0C0FEC9
:100FB0000299814219D1019A039B494617461C4A5E
:100FC0009A42DFD12B785B0603D511B13BF817307D
:100FD0005BB9013EF7B200212046FFF732FF8146A0
:100FE000002897D01BE0B742BAD0FF27F3E74FF6AF
:100FF000FF729145E3D0F8E727B92846FFF73CFA9E
:1010000050450CD094F82B9019F0010997D10B2280
:1010100004F120012846FFF716FA00288FD1484630
:1010200005B0BDE8F08F4FF00409F8E7D0CF00001D
:10103000DDCF00002DE9F84FFF260768054634464E
:101040004FF004094FF6FF78A96919B9B9F1000FFB
:101050006FD05FE03846FFF776FA8146002859D115
:10106000E8690378002B6DD0C27AE52B02F03F02CD
:10107000AA7154D02E2B52D022F0200108294ED034
:101080000F2A51D15A0648D503F0BF042B69467B7D
:10109000EB62437BB34242D1C27E837E43EA0223AA
:1010A0001BB2002B3BD10278F968DFF8A0E022F0F8
:1010B0004002013A4FF00D0C0CFB02FC4FF001090D
:1010C0001EF801AB00EB0A0292F801B010F80A20FA
:1010D00042EA0B22B9F1000F23D0BCF17F0F1ED8DA
:1010E00021F81C2091460CF1010C01330D2BE7D1A6
:1010F00003785B0605D5BCF17F0F10D8002321F8DB
:101100001C30013CE4B200212846FFF79AFE8146DC
:10111000002899D00023AB610DE0A342B9D0FF2491
:10112000F1E74245E1D0FAE744B9FFF7A5F9B0424B
:1011300004D14FF000094846BDE8F88F4FF0FF3367
:10114000EB62F8E74FF00409E4E700BFD0CF0000FE
:101150002DE9F04F85B00368019306468A4611F8E1
:10116000013B2F2BFAD05C2BF8D00021B1609AF80C
:1011700000301F2B00F2CD808023304686F82B30C4
:1011800005B0BDE8F04FFFF771BC7F2807D8924A41
:1011900012F8013B1BB19842FAD106204EE0802D97
:1011A000FBD02BF815000135B7E033F8022D202ACB
:1011B00002D02E2A40F0D480013DCEE00246D7E096
:1011C000C84505D2AB4249D1B9F10B0F3ED102E07F
:1011D000B9F10B0F35D144F003044FF00B0996F829
:1011E0002030E52B04BF052386F82030B9F1080F25
:1011F00004BFBF00FFB207F00C030C2B03D007F0B5
:101200000303032B01D144F00204A50707D4F80718
:1012100048BF44F01004790748BF44F0080486F83A
:101220002B403046FFF762FE96F82B3000285FD047
:10123000042803D113F0040F08BF052005B0BDE852
:10124000F08FAB4202D044F00304C8D8BF00FFB215
:101250002B464FF00B094FF00808B9E07F2812D950
:1012600044F0020240F2B5110393029200F02CFD0B
:1012700010F0800FDDE902230FD000F07F00574906
:10128000085C144628B1564911F8012BF2B182428C
:10129000FAD144F003045F2011E0FF28F1D909F1ED
:1012A000FF31884503D344F00304C84690E006EBC1
:1012B0000801040A81F8204008F10108144606EBF1
:1012C000080208F1010882F8200081E0A0F1410243
:1012D00092B2192A02D847F00207F0E7A0F16102A2
:1012E00092B2192A9EBF203847F0010780B2E6E784
:1012F0005A07A3D4B379DB066CD5019B03F13801FF
:101300003369C3F308031944019B1878FFF7E1F828
:10131000B0603368D3F80CB000251AF8010B68B13F
:1013200040F2B51100F0F0FC00283FF436AF1F2862
:1013300004D92F2802D05C287FF427AF52461378B7
:101340002F2B924602F10102F9D05C2BF7D0202816
:1013500034BF042400240BEB4503002D7FF425AF9C
:1013600000220BEB45032BF81520002D3FF415AFA1
:101370003BF81210202902F101003FF41FAF0AB917
:101380002E2901D144F0030433F8021D2E2901D087
:10139000013DF9D106F1200306F12B01202003F8CD
:1013A000010B9942FBD14FF000084FF00809474666
:1013B0003BF81200531C00283FF411AF202805D041
:1013C0002E287FF4FDAEAB423FF4FEAE44F00304A2
:1013D0001A46EDE7052031E7E7CF000050CF0000C7
:1013E000F0CF000070B5C3780446002B45D12378B8
:1013F000032B39D12379012B36D104F1380604F5BA
:101400000E723346002503F8015B9342FBD155234E
:1014100084F83632AA2384F83732522341227221CB
:1014200084F8383084F83930612384F83A3084F80D
:101430003B2084F81E2284F81F3284F81C1284F8A2
:101440001D1204F50870A169FEF7F5FF616904F546
:101450000970FEF7F0FF626A60780132626301236F
:10146000314600F0D2FC257100221146607800F070
:10147000E0FC003018BF012003E0FFF744F800282B
:10148000B5D070BD2DE9F04F90F82B4014F0A004BA
:1014900089B0054640F08F800668F26832F8143053
:1014A000002B66D105F120070C22394605A8FFF76D
:1014B00007F89DF81F30DB0740F186804023DFF8F6
:1014C000448285F82B304FF0010A0B2205A93846DB
:1014D000D6F80C90FEF7F4FFBAF1050F5AD9A9F12E
:1014E0000201534631F8022F002A44D10DF11300B6
:1014F000072203F00F0C0CF13001392988BF0CF1E1
:1015000037010F2B00F8011902F1FF324FEA1311D6
:1015100042D808AB13447E2103F8141C05F11F01C7
:1015200008460023934206D010F801CFBCF1200FEB
:1015300003F1010E32D1072A9CBF08A8801803F1DD
:10154000010396BF10F8140C20200132072BC85459
:10155000F1D92846FFF7CAFC814678BB0AF1010A97
:10156000BAF1640FB1D14FF00709484609B0BDE8A0
:10157000F08F013492E7102002F0010C0CEB4303D2
:1015800013F4803F18BF83EA080301384FEA520280
:10159000F2D1A7E75346A9E70B46AAE77346C1E78E
:1015A000804601212846FFF74CFC814610B3B9F173
:1015B000040FD8D0D9E74FF00609D6E70428D4D1D4
:1015C0009DF81F3085F82B309DF81F30D5F800A00E
:1015D0009B0748BF0C344FF00001284649BF0D233C
:1015E0000124B4FBF3F40134FFF740FA81460028EC
:1015F000DDD18046A9695046FEF7A5FF8146002847
:10160000D5D1EB691B78E52B01D0002BC8D108F1AF
:1016100001084445C5D1013C55D029692846A1EBB4
:101620004411FFF723FA814600289ED13846FEF781
:1016300023FF4FF6FF780190A9693046FEF783FF3C
:101640008146002891D1EB69019AD6F80CE05A73D3
:10165000E1B24FF00F024FF00D0CDA72DFF8A8A0E4
:1016600018734A1E0CFB02F29876D87684464045E1
:101670001AF8019B18BF3EF8120003F8090003EBAB
:10168000090B0CF1010C18BF01324FEA1029002898
:1016900008BF4046BCF10D0F8BF80190E7D14045E3
:1016A00002D03EF812200AB941F04001197001231E
:1016B000F37000212846FFF7C4FB814600287FF421
:1016C00054AF013CB8D1A9693046FEF73CFF8146D2
:1016D00000287FF44AAFEB69014603F1200203F8CA
:1016E000011B9342FBD10B223946E869FEF7E8FE65
:1016F00095F82B30EA6903F0180313730123F37094
:1017000033E700BF21100100D0CF0000F0B585B055
:10171000CDE9001003A814460391FEF7BCFE051E98
:1017200028DB154F57F825604EB1306900F0B8FA44
:1017300018B90224204605B0F0BD0023337001998A
:1017400079B9019B47F82530002CF3D001A900227C
:101750006846FEF755FF044601460198FFF772FA06
:10176000E8E7002301F8103BE8B200F08BFA00280C
:10177000E7D1DEE70B24DDE7800300102DE9F0411F
:10178000D0B0174601910446002800F0DB8002F03B
:101790003F052A4602A901A8FEF732FF06460028A7
:1017A0004BD1029B019903930FAADA6003A8FFF7BC
:1017B000CFFC20B99DF93730002BB8BF062017F0B9
:1017C0001C0F00F09F80002842D0042835D103A8C8
:1017D000FFF758FE88BB45F00805029BDDF828801E
:1017E00018784146FEF775FE074600F034FB0146C7
:1017F00008F10E00FEF71FFE0A9B02982022DA7203
:101800000A990022FEF773FE0A9B00221A775A7784
:101810009A77DA77029B0121D97017B3394603A86A
:10182000D3F83480FFF7D7F938B941460298FEF76C
:101830008AFE029B013F5F6198B100232360064648
:1018400031460298FFF7FEF9304650B0BDE8F0810E
:101850009DF8123013F0110F5ED178076CD4390760
:10186000BBD4DDF808800A9FD8F834302362676261
:1018700098F800002907394648BF45F04005FEF7B3
:1018800028FEA06007F11C00FEF7CDFDB8F8063079
:10189000A38004F128070023E060C4F800802574C9
:1018A0006374E361636104F50A713A4602F8013B2F
:1018B0009142FBD1AA06C3D5E568002DC0D0B8F887
:1018C0000A80A16865614FEA4828A84526D3002010
:1018D000A1610028B1D1C5F30803002BB0D0DDF819
:1018E00008804046FEF7BDFD50B300EB5522E26193
:1018F0000123394698F8010000F073FA00289FD0C0
:1019000001209AE7002898D19DF81230DA0615D404
:10191000BF07A6D5D807A4D507208EE72068FFF714
:101920004BF801280146A5EB080503D9431CCCD18F
:101930000120CDE70220CBE708207EE704207CE7EA
:1019400002207AE709267FE72DE9F04F9B4685B014
:1019500000238946CBF8003003A904461646FFF75A
:101960007CF9054608B9657C25B129460398FFF73F
:1019700069F908E0257C15F0010508D107210398D5
:10198000FFF760F90725284605B0BDE8F08FE3684A
:101990006769DF1BB74204F1280328BF374600936D
:1019A0002FB939460398FFF74DF93D46EBE76269D9
:1019B000C2F30803002B76D1039B5B89013B13EA3A
:1019C000522313D12AB9A068012809D802256574C9
:1019D000CBE7A16920680193FEF7EEFF019BF3E7D7
:1019E000421C02D101216174C0E7A061DDF80CA0A6
:1019F000A16901935046FEF734FD019B20B90225F1
:101A0000657429465046B2E7B7F5007F03EB00083E
:101A10002BD37E0ABAF80A209AF80100991991424C
:101A200088BFD61A33464246494600F0DAF9002804
:101A3000D8D194F91030002B0BDAE069A0EB080044
:101A4000B04206D24FF40072009909EB4020FEF735
:101A500037FD7602DBF800303344CBF800306369A1
:101A6000BF1BB1441E4466619AE7E269424518D043
:101A700094F91030002B0BDA012300999AF8010039
:101A800000F0C3F90028ADD1237C03F07F03237459
:101A90000398009940780123424600F0A2F90028FB
:101AA000A0D1C4F81C806169009BC1F30801C1F595
:101AB0000076BE4228BF3E46324619444846FEF7ED
:101AC000FFFCC7E7F7B501A90446FFF7C6F80546CE
:101AD000002843D1237C13F040053FD01B0614D5CA
:101AE0000198E2694078012304F1280100F08DF9A2
:101AF00038B101210198FFF7A5F80125284603B068
:101B0000F0BD237C03F07F03237400F0A4F9216A65
:101B100007460198FEF717FD0546F8B9666AF37A9D
:101B200043F02003F372A26820683146FEF7DFFC21
:101B3000E16806F11C00FEF77EFC394606F116004E
:101B4000FEF779FC0198B5740123F574C370FFF7B3
:101B500049FC237C23F04003054623742946019861
:101B6000FFF770F8CAE737B50546FFF7ABFF044645
:101B700050B901A92846FFF770F8044620B928603B
:101B800001460198FFF75EF8204603B030BD30B53E
:101B9000C5B005460191002833D0002202A901A852
:101BA000FEF72EFD044690B9029B2B6003AADA6073
:101BB00001992846FFF7CCFA044620BB95F92B3053
:101BC000029C002B0BDBAB79DB0603D4052400233E
:101BD0002B600FE02078E969FEF77BFCA860E388C2
:101BE000AB8000212846FEF741FF04280446EDD0D3
:101BF0000028ECD121460298FFF724F8204645B092
:101C000030BD0924FAE70428E0D0E0E737B501A9A0
:101C10000546FFF722F8044620B9286001460198DE
:101C2000FFF710F8204603B030BDF0B5C3B00E4644
:101C300069460546FFF711F8044628B95EB9014622
:101C40002846FEF713FF044600982146FEF7FAFFE8
:101C5000204643B0F0BD009B01AADA602846FFF79A
:101C6000E9F910F0FB070446EED131462846FFF7AC
:101C70001CF839462846FFF7E4F8042814BF044648
:101C80000024E1E710B501200C46044902F016F9E2
:101C90002060003018BF012010BD00BF8803001075
:101CA00008B502F08FFB012008BD08B540F6B83139
:101CB00002F068FA431E5842584108BD00231A46F4
:101CC000194602F04DB8FFFF7F2810B501D880B249
:101CD00010BDB0F5803F13D240F2B51399420FD139
:101CE0000849002231F8024B844293B203D103F138
:101CF0008000C0B2ECE70132802AF3D11346F6E748
:101D00000020E5E7A6D200007F280DD940F2B513E8
:101D1000994208D1FF2806D800F10040034B8038D3
:101D200033F8100070470020704700BFA6D20000B3
:101D3000B0F5803FF0B521D21E4A1F4983B2B0F5FD
:101D4000805F28BF0A46141D34F8042C2146A2B136
:101D5000934212D334F8025C2E0AEDB2AF18B842A7
:101D600022DA082E09D8DFE806F0050A1012141648
:101D7000181A1C00801A34F810301846F0BD981A52
:101D800000F001001B1A9BB2F7E7103BFBE7203B7A
:101D9000F9E7303BF7E71A3BF5E70833F3E7503B49
:101DA000F1E7A3F5E353EEE70434002ECCD101EBC9
:101DB0004502C8E7F8CF0000EAD1000010B504469C
:101DC00001F0A8F834B900F00FF9044601F0BCF8AE
:101DD000204610BD0424F9E708B900F0A3B9042097
:101DE0007047F8B507460C4615461E4601F092F8B6
:101DF0004FB92046F2B2294600F09CF9044601F0A2
:101E0000A3F82046F8BD0424F9E7F8B507460C46C8
:101E100015461E4601F07EF84FB92046F2B229461B
:101E200000F0CEF9044601F08FF82046F8BD0424F6
:101E3000F9E770B506460C46154601F06BF846B951
:101E40002046294600F010FA044601F07DF82046AD
:101E500070BD0424F9E70020704738B501F0C4F8DC
:101E600000F5FA75FF2004F041FAFF2004F03EFA75
:101E7000FF28044603D001F0B7F88542F5D8204684
:101E800038BDFFFF08B503F06BFAFFF7E6FF03F07C
:101E90006FFA034A137843F00103137008BD00BFC3
:101EA0000800001038B505460C46FFF7D6FFFF289E
:101EB00021D1204604F01AFAFD2C1ED0AC1C05F2EC
:101EC000022514F8020C04F011FA023414F8030C81
:101ED00004F00CFAAC42F4D1FF2004F007FAFF2022
:101EE00004F004FAFF2004F001FA00F01F00431F81
:101EF0005842584138BD0020FCE70120FAE737B5C9
:101F0000020604460D4607D500217720FFF7F7FFAC
:101F1000012831D804F07F0403F02AFA03F020FAF4
:101F2000FFF79BFFFF282BD1402C27D0482C0CBF5C
:101F3000872301232A0E8DF801202A0C8DF8022018
:101F400006212A0A68468DF800408DF803208DF896
:101F500004508DF8053004F0D3F94C2C02D1FF2049
:101F600004F0C4F90A24FF2004F0C0F9030603D5E5
:101F7000013C14F0FF04F6D103B030BD9523D9E73E
:101F8000FF20F9E770B5054601F02EF800F1640670
:101F9000FF2004F0ABF9044601F026F8864201D395
:101FA000FF2CF5D0FE2C0CD14FF40071284604F024
:101FB000AAF9FF2004F09AF9FF2004F097F9012014
:101FC00070BD0020FCE7FFFF38B5064D2C78E4B269
:101FD00003F0D6F918B104F0FD042C7038BD44F0BC
:101FE0000304FAE7080000102DE9F341FFF7ECFFC6
:101FF0004A4B1A7812F0020F1E4604D01878C0B26D
:1020000002B0BDE8F081C82004F038F90A25FF20AD
:10201000013D04F06BF915F0FF05F8D103F0A0F9CC
:1020200029464020FFF76BFF0128044671D100F0DC
:10203000DBFF4FF4D57100F57A774820FFF75FFF9B
:10204000012848D101ADA8460424FF2004F04EF930
:10205000013C14F0FF0408F8010BF6D19DF806309E
:10206000012B56D19DF80730AA2B52D100F0BCFFAE
:10207000874206D94FF08041E920FFF740FF002852
:10208000F4D100F0B1FF874243D900217A20FFF755
:1020900036FF00283DD10424FF2004F027F9013C3D
:1020A00014F0FF0405F8010BF6D19DF8043013F08D
:1020B000400F14BF0C240424194B1C7003F058F972
:1020C0004CB3337845F6C05003F0FE03337004F090
:1020D000D5F8307893E72946E920FFF710FF02286A
:1020E00036BFE9254125022400F07EFF874205D94D
:1020F00000212846FFF703FF0028F5D100F074FF08
:10210000874206D84FF400715020FFF7F8FE0028F0
:10211000D2D00024D0E7FFF7B5FEDAE708000010C0
:10212000D803001008B5FFF74FFF014B187808BD22
:102130000800001070B5144605460E46FFF744FF30
:10214000002C35D01C4B1B78DA0733D403F008F988
:102150001A4B1B781B0758BF7602012C314611D150
:102160005120FFF7CCFE38B94FF400712846FFF735
:1021700009FFB0FA80F4640903F0FAF8201C18BFD4
:10218000012070BD5220FFF7BAFE0028F4D14FF4B1
:1021900000712846FFF7F6FE28B1013C14F0FF0459
:1021A00005F50075F3D100214C20FFF7A8FEE3E709
:1021B0000420E6E70320E4E708000010D80300103D
:1021C00070B5144605460E46FFF7FEFE002C41D0C2
:1021D000234B1A78D0073FD41B7859073ED403F01D
:1021E000BFF8204B1B781A0758BF7602012C11D17B
:1021F00031465820FFF783FE50BBFE212846FFF7EB
:1022000051FEB0FA80F4640903F0B2F8201C18BF44
:10221000012070BD13F0060F03D02146D720FFF731
:102220006EFE31465920FFF76AFE0028ECD1FC21F2
:102230002846FFF737FE28B1013C14F0FF0405F5EE
:102240000075F4D1FD210020FFF72CFE0028DBD122
:102250000124D9E70420DCE70320DAE70220D8E7ED
:1022600008000010D80300107FB506460D46FFF7A2
:10227000ABFE052E15D12C78012C10D02CB1022CE0
:102280000AD00424204604B070BD03F079F8002879
:10229000F8D0FFF7F7FDF5E703F072F86870002457
:1022A000F0E76F4B1C7814F0010440F0D7800E2E3D
:1022B00000F2D280DFE806F008134E52D0D0D0D022
:1022C000D0D09DA1B0B3C40003F04AF8FFF7C5FD1C
:1022D000B0F1FF0418BF012403F04AF8D2E700214F
:1022E0004920FFF70CFE044608B10124F4E7102151
:1022F0006846FFF747FE0028F7D09DF800309DF8AC
:1023000008109B09012B9DF8093006D15A1C02EBDD
:10231000012292B292022A60DEE79DF807209DF822
:102320000A00920002EB91129DF80610890201F456
:10233000406101320A449DF805105B0001F00F0175
:1023400001EBD01103F006030B44073B02FA03F341
:102350002B60C1E74FF400732B80BDE7414E31780D
:1023600011F004011CD00021CD20FFF7C8FD00288A
:10237000BBD1FF2003F0BAFF10216846FFF702FE31
:102380000028B2D03024FF20013C03F0AFFF14F04E
:10239000FF04F8D19DF80A301A0910239340D7E7BB
:1023A0004920FFF7ACFD044600289ED11021684665
:1023B000FFF7E8FD002898D032789DF80A309DF8A4
:1023C0000B1092070AD55B009DF80D2003F07E03E9
:1023D00003EBD11392090133013ADFE7CA0002F09F
:1023E0001802C3F3840302EB5112013302FB0333DF
:1023F000AEE71C4B1B782B706EE700214920FFF7DE
:102400007EFD00287FF471AF10212846FFF7BAFD4A
:10241000B0FA80F464095FE700214A20EFE7002169
:102420007A20FFF76CFD044600287FF45EAF2E1D76
:10243000FF2003F05BFF05F8010BAE42F8D14BE73C
:102440000021CD20FFF75BFD00287FF44EAFFF2079
:1024500003F04CFF4021D8E704243DE7032411E7B3
:1024600008000010D803001008B5064606F0EDF885
:1024700000240546A54200DCFEE7315D002004F0A3
:1024800037F80134F6E7FFFF08B50148FFF7ECFF26
:10249000CCD3000002280CD9074B1B685A68824233
:1024A00007D09A68824204D0DB681B1A5842584110
:1024B00070470120704700BFA801001008B501480F
:1024C000FFF7D2FFA6D3000000207047002070471E
:1024D000F8B504460E461546FFF7DCFF48B3164B29
:1024E0001B68DB68A34210D0A31E5C425C4102F073
:1024F0004FFD0746002003F0AFFF022F17D1B0B108
:10250000ACB9A54203DC2846F8BD0124EFE7315DF4
:102510004FF0FF32002004F04DF80134F1E7315D57
:10252000002003F0E5FF0134A542F8DCEBE70024CE
:10253000FAE70248FFF798FFA801001050D4000006
:1025400038B50C46FFF7A6FFA8B102F021FD0546FD
:10255000002003F08BFF022D08D138B14FF0FF327D
:102560002146002003F0D6FF012038BD214600207F
:1025700003F0F6FFF8E70148FFF776FF1ED40000EE
:102580002DE9F04F85B002AC84E80C000646244AE1
:10259000DFF89C90DFF89CA0DFF89CB0884694E8B8
:1025A000030000F02DFE94E80300B56800F000FE83
:1025B00001464046A847356815B905B0BDE8F08F1B
:1025C0006F68384606F041F82B68009732288CBFB8
:1025D00052464A4694E8030000F012FE5A4694E838
:1025E000030000F0E1FF0F4A074694E8030000F003
:1025F000DBFF07B920B10C4A94E8030000F0A3FE0A
:102600000A4A94E8030000F09EFE94E80300B768CD
:1026100000F0CEFD01464046B847ED68CCE700BF6C
:1026200083D40000CAD40000A7D60000C9D400009B
:10263000DFD40000CCD40000EBD4000030B5042976
:102640004FF0000538BF04210560C0E90112C360E6
:1026500030BD11B10368CB60016070472DE9F04FC8
:1026600087B06E4686E80C000546634A884696E8C1
:10267000030001F005F8614A96E8030000F0CBFE84
:10268000002856D096E8030002AC5C4A84E80300B8
:1026900000F094FE30B194E80C0041462846FFF764
:1026A0006FFF3DE094E80300202200F097FF94E8DC
:1026B000030004AF87E803002E68DFF848912EB9C5
:1026C00094E803002E6887E8030010E04B46326868
:1026D00097E8030000F0D8FED0B9F668EFE76B6822
:1026E000326897E8030000F07BFE88B9F668002E98
:1026F000F5D13246424B94E8030000F0DDFD94E84A
:102700000300AE6800F054FD01464046B04703E0C8
:10271000AB68716840469847AB6837494046984770
:10272000E968002965D0AB68404607B0BDE8F04FC6
:102730001847DDE900A9CDE904A92E68314F04ACA2
:102740001EB9CDE904A92E6810E03B46326894E832
:10275000030000F099FEE0B9F668F1E76B683268B3
:1027600094E8030000F03CFE98B9F668002EF5D11D
:10277000CDE904A93246244B94E8030000F09CFD07
:1027800094E80300AE6800F013FD01464046B047F0
:1027900081E7CDE902A90DF1080B20229BE8030097
:1027A00000F01CFFB768AB689BE806004046B847DE
:1027B0000028B5D0CDE904A9144B002294E8030009
:1027C00000F07AFD94E80300AF6800F0F1FC0146E8
:1027D0004046B84773680E4A94E8030000F010FDC5
:1027E00094E80300AE6800F0E3FC01464046B047C1
:1027F00096E707B0BDE8F08FC9D40000EDD4000023
:1028000020D50000E6E2000049D50000F2D4000027
:1028100003D5000010B54C1E14F8010F00B910BD0F
:1028200005F0AAFDF8E7FFFF2DE9F041A6B06E46DE
:102830008046224B802206A9304600F02AFD02ACD9
:1028400096E80C0000214046FFF708FF96E80300D9
:1028500084E8030000F0B3FC04AD94E8030000F04A
:102860003CFE0028ECD104F0B3FCC7B294E80300AE
:10287000082F85E8030017D100F076FC68B101222B
:1028800095E8030000F075FE384605F075FD202040
:1028900005F072FD384605F06FFD94E8030000F086
:1028A0006EFC0028D9D0CBE7384605F065FD3A46E6
:1028B00095E8030000F06EFDEFE700BFEDD40000E7
:1028C00030B589B004AD2846164B174A174C042181
:1028D000FFF7B4FE95E80F0084E80F002046144986
:1028E000FFF7B7FE20461349FFF7B3FE2046124913
:1028F000FFF7AFFE20461149FFF7ABFE2046104917
:10290000FFF7A7FE0F4B02930F4B01930323009396
:102910004FF4007223460D490D4801F0CBFE09B07B
:1029200030BD00BF7AD5000015280000DC03001080
:102930004C0000103C0000101C0000100C000010A7
:102940002C000010EC0B0010EC030010CDD50000A3
:10295000292800002DE9F047EAB00DF108090DF132
:10296000A80A89E80300164600214FF480725046F9
:1029700008AC04F07BFC0DF1180880220AA920465F
:1029800007AF00F0D1FB002501233B60C8F80050E1
:10299000CDE9008705AB2B4A059599E8030000F0C7
:1029A00046FC012842D93B68009398F800209DF826
:1029B00014105346022003F07DF8814648B3059B6E
:1029C000214ADFF8909094E8030000F019FC94E8A5
:1029D000030000F0EDFB01462846B0473B68AB42E0
:1029E00002D86AB0BDE8F0871AF80520D8F80030A0
:1029F000CDE900222B444A4694E8030000F000FC95
:102A000094E8030000F0D4FB01460020B0470135F4
:102A1000E4E70E4A94E8030000F01DFC94E803008C
:102A200000F0C6FB01464846B047DAE7084A94E89A
:102A3000030000F010FC94E8030000F0B9FB01462D
:102A40002846F1E754D7000061D7000092D7000074
:102A5000BFD700007BD700002DE9F047EAB0002582
:102A600002AE0DF118080DF1A80986E8030017461B
:102A700029464FF48072484608AC0595C8F80050C6
:102A800004F0F4FB80220AA9204600F04DFBCDF8AB
:102A9000008005AB364A96E8030000F0C8FB022828
:102AA0005AD1202296E8030000F098FD202296E8F3
:102AB000030000F093FD079507AA96E8030000F0D5
:102AC000A7FD824608BB00954B4698F800209DF86C
:102AD0001410022003F00EF8064680B3059B009305
:102AE000244A2B4694E8030000F08AFB94E8030094
:102AF00000F05EFB01465046B8475646DFF880A01E
:102B0000B54207D16AB0BDE8F087079B09F80530E8
:102B10000135D1E719F80620D8F80030CDE90022B8
:102B20003344524694E8030000F06AFB94E8030043
:102B300000F03EFB01460020B8470136E0E70E4AB0
:102B400094E8030000F087FB94E8030000F030FBFA
:102B500001463046B847D5E7084A94E8030000F03C
:102B60007AFB94E8030000F023FB01462846F1E7D6
:102B7000FFD7000009D8000040D800006ED8000040
:102B800029D800002DE9FF416C4684E80600154A6B
:102B900094E803001F4600F03EFC134A054694E803
:102BA000030000F038FC2022804694E8030000F087
:102BB00015FD94E8030002AE86E8030035B13A46FD
:102BC000FFF7C8FE002004B0BDE8F081B8F1000FA7
:102BD00005D03A4696E80300FFF73EFFF2E70120F2
:102BE000F1E700BF49D700004ED7000037B56C466B
:102BF00084E8060094E803001D4600F0D9FA014677
:102C0000032000F0FAF908490020A84794E80300DF
:102C100000F0CEFA01460020A84704490020A8474A
:102C2000002003B030BD00BF67D90000C9D4000048
:102C300082B002AB03E906000123024A1A600020B9
:102C400002B07047EFBEADDE2DE9F04F8FB006AF9A
:102C500007F1080080E8060003C8994600F0FAFB77
:102C6000041E04DD02F0A8FA204601F049FFBB680B
:102C7000BB61DAB0FB68FB6100257D6100F03AFAC8
:102C80000DF1180B786007F114020A21584602F082
:102C900033F907F118042A4B2A4A386094E80300F4
:102CA00000F0AEFA94E8030000F082FA01462846EC
:102CB000C847A8465E464FF0000A26E073694345C0
:102CC00020D1B2697B69154423B16421B3FBF1F3D0
:102CD000B2FBF3F3CDE90332338C1B4A9B00CDE901
:102CE0000183337B52F8233000937368174A94E8CA
:102CF000030000F085FA94E8030000F059FA014659
:102D00000020C8470AF1010A24363B685345D5D153
:102D100008F10108B8F10A0FCCD17B680C4A5B1BA3
:102D200094E8030000F06CFA94E8030000F040FA25
:102D300001460020C84700202437BD46BDE8F08F7B
:102D400009D900000ED90000A4D9000039D900002B
:102D500056D9000037B56C4684E806000C4A94E862
:102D600003001D4600F057FB78B1202294E80300D1
:102D700000F034FC07480099006800234FF0FF3250
:102D800000F0EEFF002003B030BD0349A847F9E78B
:102D9000C0D80000DC240010C5D80000F8B50446F7
:102DA0000D4600F00BF9061941EB050702F0F0F8AB
:102DB00002280CD100234FF47A72AB4208BFA24222
:102DC00005D22046294603F0ADFF01F099FE00F040
:102DD000F5F8B94208BFB042F9D3F8BD4FF47A73A1
:102DE000A0FB0301FFF7DABF30B585B002F036FA79
:102DF00002F0D0FA8DF80C0002F0D2FA8DF80D0036
:102E000002F0D4FA8DF80E0002F0D6FA00248DF804
:102E10000F0004AA04F003031344013413F8040C54
:102E200002F056FC3220FFF7D9FF202CF1D1294BBC
:102E30001868002319460222406805F0C1FAFDF720
:102E4000F1F9002501464FF4E132002003F0C0FA09
:102E50000095214B214A0121204600F011FF204B13
:102E6000009504461F4A0121802000F009FF2246F8
:102E70000146284603F004FB45F6C05003F014FA5F
:102E8000012219491948FEF741FC194A194B1A4900
:102E9000A84208BF1346194A19481A4D05F00CFA02
:102EA000FDF7C0F9184B00930246184B1849022051
:102EB00002F0A4FD0224E1B2022002F02BFE18B1C0
:102EC0002146284605F0F8F90234B4F5807FF2D1A6
:102ED00005B030BDA8010010080D0010E80C00106E
:102EE00010100010900F0010CBD40000580D0010EF
:102EF000C9D90000E7D900000EDA0000B8D90000F7
:102F00005FDA00007FDA0000980C0010480C001017
:102F1000801A060010B50A4C236823B9094901201C
:102F200000F0CCFF206002F033F8022806D12068C0
:102F30004FF0FF31BDE8104001F024B910BD00BFD3
:102F4000601000106410001010B502F021F8022883
:102F500008D1054800231A4619460068BDE810400C
:102F600000F0FEBE10BD00BF60100010074A08B59B
:102F70001368002101330846136002F003FC0021AE
:102F80000846BDE8084002F0E9BB00BFB4100010DD
:102F900008B5074A0749B0FBF1F10020013902F0FA
:102FA000A7FB0021044A0846BDE8084002F0C4BB64
:102FB0006D2F000040420F000087930370B5084E4C
:102FC000002002F0D7FB05460020346802F0D2FB57
:102FD0008542F5D8034B0021E3FB040170BD00BF1F
:102FE000B41000100087930308B5FFF7E7FF4FF414
:102FF0007A72002303F096FE08BD70B505460846B8
:103000000C4605F022FB2618B4424FF0FF320BD1DC
:103010000D21284603F0CEFA28464FF0FF320A2150
:10302000BDE8704003F0C6BA14F8011B284603F04F
:10303000C1FAE9E770B5054608460C4605F005FB00
:103040002618B44205D128460A21BDE8704003F095
:103050004FBA14F8011B284603F04AFAF1E7FFFFC4
:103060000C460020044908B5FFF7E4FF2146002084
:10307000FFF7E0FFFEE700BFD8DB000008B502491C
:103080000020FFF7D7FFFEE79EDB0000024B002287
:10309000C3F8C02030BF704700C00F4008B50C46D1
:1030A00000200A49FFF7C6FF09490020FFF7C2FFC9
:1030B00008490020FFF7BEFF07490020FFF7BAFFCD
:1030C00021460020FFF7B6FFFEE700BFA6DA0000AA
:1030D000F8DA00003BDB00006FDB0000034B03600D
:1030E000034B0B6064231360704700BF5012001045
:1030F000C010001008B5FFF761FF024B1B68C01A33
:1031000008BD00BFB810001008B5FFF757FF024B0D
:10311000C3E9000108BD00BFB810001018B109B123
:10312000401A70470846704738B5054614460B46A6
:1031300049B152B11846002104F098F80346C5E998
:103140000034284638BD0C46F9E71346F7E782B04D
:1031500002AB03E90300DDE900301BB100B1013827
:1031600002B070471846FBE782B002AB03E90300E8
:10317000009810B102B005F068BA02B0704713B5FC
:103180006C4684E80300009B23B9B1FA81F0400942
:1031900002B010BD94E80300FFF7E6FF024694E892
:1031A0000300FFF7D4FF824234BF00200120EFE785
:1031B00082B002AB03E90300009802B0704782B00E
:1031C00002AB03E90300009B33B1019810B1002268
:1031D0001A70012002B070471846FBE707B50DF1E1
:1031E000080C0CE90300009830B12AB1019919B11B
:1031F00006F030F9002800DC002003B05DF804FB85
:103200000CB41FB56C4684E80300069A40B162B165
:10321000084629B107AB94E803000393FFF7DEFFEC
:1032200004B0BDE8104002B070471046F8E70CB497
:103230001FB56B4683E80300069930B129B107AA90
:10324000039206F039F9002800DC002005B05DF893
:1032500004EB02B07047F7B56D4685E803001446ED
:103260000646A0B19AB1084679B1104605F0EDF9CD
:10327000074695E80300FFF76AFF8742024606D833
:103280002146304605F01EFA012003B0F0BD0020B3
:10329000FBE738B504461D4621B90023C4E90033D5
:1032A000204638BD002BF8D0FFF73EFF2A4694E8B1
:1032B0000300FFF7D0FFF3E72DE9F04385B06D463B
:1032C00085E8030016461F46044618B9002005B0DD
:1032D000BDE8F083002BF9D0DDF80480B8F1000FD1
:1032E000F4D095E80300FFF73FFFB042EED3CDE9FD
:1032F00002480DF1080898E80300FFF735FF814602
:10330000384605F0A2F9814498E80300FFF71FFF53
:103310008145DBD8384605F098F93444804604EB03
:10332000000995E80300FFF71FFFC6F10102024400
:103330002146484603F080FF42463946204605F0C4
:10334000C1F90120C3E72DE9F3416C4684E803008D
:1033500015460646E0B1DAB10846B1B194E803007B
:10336000FFF702FF0746284605F06FF9024607EB14
:10337000000894E80300FFF7EAFE804508D8013210
:103380002946F01903F04AFF012002B0BDE8F081A0
:103390000020FAE71FB56B4683E8030058B10846E2
:1033A00049B18DF80C2000228DF80D2093E8030020
:1033B00003AAFFF7C8FF05B05DF804FB07B502AB31
:1033C00003E903000098114628B13AB105F014F959
:1033D000B0FA80F0400903B05DF804FB1046FAE74C
:1033E000F7B56D4685E8030014461F46064680B1D2
:1033F0007AB195E80300FFF7B7FEB84209D33A4621
:103400002146304605F04CF9B0FA80F0400903B08F
:10341000F0BD0020FBE773B56B4683E8030014465C
:103420000546A0B19AB193E80300FFF79DFE06465A
:10343000204605F00AF98642024608D3214628466E
:1034400005F00CF9B0FA80F0400902B070BD002020
:10345000FBE7FFFF13B56B4683E80300044678B132
:10346000084A93E80300FFF7D6FF002814BF102294
:103470000A220021204602B0BDE8104005F0B4BF8A
:1034800002B010BDF5DB00002DE9F3416F4687E87F
:10349000030015461C460646E8B1E2B1DBB197E8E9
:1034A0000300FFF761FE8046284605F0CEF8804510
:1034B000074610D302462946304605F0F1F850B9C8
:1034C000F05D237883421ABFB0FA80F040090120F2
:1034D00002B0BDE8F0810020FAE713B56B4683E83F
:1034E0000300044668B193E80300FFF73DFE40B1D6
:1034F000204410F8010C0D2805D0A0F10A03584211
:10350000584102B010BD0120FBE7F7B56F4687E8D0
:10351000030015461E460446A8B1084689B197E83F
:103520000300FFF721FEA8420DD9401B864228BFA9
:103530000646A9190130821B2144601903F07CFE64
:10354000012003B0F0BD0020FBE717B46C4684E80F
:103550000300134640B139B194E80300002203B0E0
:103560005DF8044BFFF7D1BF002003B05DF8044BBA
:10357000704737B56C4684E80300154688B181B1C1
:1035800094E80300FFF7F0FDA84228BF421B94E82F
:10359000030038BF00222B4603B0BDE83040FFF7E0
:1035A000B4BF002003B030BD13B502AB03E9030084
:1035B000009C7CB182B1019850B11146204605F0C3
:1035C00094F828B12146FFF7A9FD002323540120D8
:1035D00002B010BD2046FBE71046F9E737B56C4650
:1035E00084E80300054678B171B1114605F020F872
:1035F00050B12946FFF792FD421C94E8030003B046
:10360000BDE83040FFF7A1BF002003B030BDFFFF91
:10361000F7B56F4687E803001446064648B351B332
:10362000164905462A4612F8013BE3B15B5C580790
:1036300017D534B10A220021284605F0D5FE2060B6
:1036400001240E4A284615F8013B73B93146FFF7AD
:1036500065FD024697E80300FFF777FF204603B0B9
:10366000F0BD1546DEE71C46EBE79B5C5B07E9D443
:10367000ECE70446F2E70C46F0E700BFFCE300008D
:10368000F7B56B4683E8030015460646F8B1EAB184
:103690000846E1B193E80300FFF766FD04462846BB
:1036A00004F0D3FF631E3344284400219A1B002AF0
:1036B00002DB2A46824201D1012008E012F8014BC8
:1036C0001F78A742F6D103F80119EFE7104603B0BF
:1036D000F0BD00F075B800F0BBB800F0EBB810B565
:1036E000044601F0FDF8204603F088FD044601F091
:1036F00091F90CB9FFF7C2FC204610BD10B5044685
:1037000040B101F0EDF8204603F080FDBDE8104027
:1037100001F080B910BDFFFF08480068006880F321
:1037200008884FF0000080F3148862B661B6BFF3DA
:103730004F8FBFF36F8F00DF00BF000008ED00E088
:10374000DFF80C00016841F470010160704700006F
:1037500088ED00E007B5002301930B4B1B68013394
:1037600004D00A49EF20FFF799FCFEE74FF0180359
:1037700083F31188BFF36F8FBFF34F8F019B002B33
:10378000FCD003B05DF804FBB4120010F8DB0000BD
:103790004FF0807340F8043C074B40F80C3C21F09C
:1037A00001016FF0020340F8081C40F8202C40F89B
:1037B000243C4438704700BF55370000FFFFFFFF2F
:1037C000074B19680868B0E8F04F80F30988BFF329
:1037D0006F8F4FF0000080F311887047AFF30080C7
:1037E000B812001008B54FF0180383F31188BFF327
:1037F0006F8FBFF34F8F094A13680133012B13609A
:103800000AD1074B1B6813F0FF0F05D0054940F2A2
:10381000AB10FFF743FCFEE708BD00BFB412001079
:1038200004ED00E012DC0000074A08B513682BB96C
:1038300006494FF4D970FFF731FCFEE7013B1360F6
:103840000BB983F3118808BDB412001047DC0000E7
:10385000EFF30980BFF36F8F154B1A681EF0100F3E
:1038600008BF20ED108A20E9F04F10602DE9090013
:103870004FF0180080F31188BFF34F8FBFF36F8FA5
:1038800001F062F94FF0000080F3118809BC19685B
:103890000868B0E8F04F1EF0100F08BFB0EC108AB7
:1038A00080F30988BFF36F8F704700BFAFF30080CC
:1038B000B812001008B54FF0180383F31188BFF356
:1038C0006F8FBFF34F8F01F013F818B1034B4FF018
:1038D00080521A60002383F3118808BD04ED00E0D4
:1038E00010B5084A084C002323601360FCF796FCCF
:1038F0004FF47A73B0FBF3F0044B013818600723E0
:10390000236010BD18E000E010E000E014E000E0EB
:10391000334B344A13B51968914205D132494FF4FB
:103920009A70FFF7BBFBFEE71A68304B9A4205D14D
:103930002F4940F23510FFF7B1FBFEE72D4B1A7807
:10394000D2B20192FF221A701B782B4ADBB28DF89B
:1039500003309DF8033003F018031370274A072340
:10396000136000219DF80300000603F1FF3409D421
:1039700011B1022B13600ED0214940F25D10FFF708
:103980008DFBFEE79DF803305B00DBB28DF8033062
:1039900001212346E6E74FF400731360019B154AAB
:1039A000DBB21370174B1A6842F478021A601A6877
:1039B00042F078421A60FFF793FF134B00241C601B
:1039C000FFF7BEFE114A136843F040431360FFF750
:1039D000A3FE01F0B9F8FFF7BDFE204602B010BD0E
:1039E00000ED00E071C20F41C5DC000070C20F4164
:1039F000E8DC000000E400E0AC120010B01200109F
:103A00000BDD000020ED00E0B412001034EF00E008
:103A100008B5EFF305830F2B0BD90D4A9B5C0D4ABC
:103A200012789A4205D90C4940F2FE20FFF736FB86
:103A3000FEE70A4B0A4A1B68126803F4E0639342EC
:103A400005D9084940F20E30FFF728FBFEE708BD14
:103A5000F0E300E0AC12001059DC00000CED00E0D7
:103A6000B012001083DC000000F108034FF0FF32B9
:103A70004360C0E902230361002303607047002311
:103A80000361704743684B609A688A609A68516026
:103A90009960036808610133036070470A68531C2A
:103AA00030B50AD103695A684A6091608B605960E9
:103AB000036808610133036030BD00F108035C68EE
:103AC00025689542EFD82346F9E7D0E9011203694A
:103AD0008A6051605968814208BF5A6000220261C1
:103AE0001A68013A1A601868704710B50446FFF763
:103AF00079FEA46BFFF798FEB4FA84F0400910BD7C
:103B0000F8B51546026C866B044652B9076847BB88
:103B1000806801F09FFAA76005460136A663284633
:103B2000F8BD65B9406803F079FB6368226C134403
:103B3000A26863609342F0D323686360EDE7C068D6
:103B400003F06CFB236CE26821685B421A448A42F2
:103B5000E2603EBFA2689B18E360022D01D116B15E
:103B6000013E0025D9E73546D7E7034610B41A6C65
:103B7000084662B1D9689C681144A142D96024BF4B
:103B80001968D960D9685DF8044B03F047BB5DF84C
:103B9000044B704770B50446FFF724FE94F8455077
:103BA00004F124066DB2002D14DCFF2384F84530A7
:103BB000FFF73AFEFFF716FE94F8445004F11006A2
:103BC0006DB2002D12DCFF2384F84430BDE8704054
:103BD000FFF72ABE636A002BE7D0304601F094F865
:103BE00008B101F017F9013D6DB2DCE72369002B44
:103BF000E9D0304601F088F808B101F00BF9013D39
:103C00006DB2DEE738B50D46044628B91A4940F2D0
:103C10000310FFF743FAFEE7FFF7E4FDD4E90F30A6
:103C2000226862604343D1181B1A1344A160E36009
:103C30000021FF23A16384F8443084F8453095B90E
:103C4000236963B104F1100001F05EF838B10B4B49
:103C50004FF080521A60BFF34F8FBFF36F8FFFF7A3
:103C6000E3FD012038BD04F11000FFF7FDFE04F173
:103C70002400FFF7F9FEF2E711DE000004ED00E09A
:103C800013B51C4628B91E494FF49D70FFF706FA7C
:103C9000FEE72BB91B494FF49F70FFF7FFF9FEE7D2
:103CA00032B161B918494FF4A170FFF7F7F9FEE797
:103CB00029B1164940F24310FFF7F0F9FEE750230F
:103CC0000193019B502B05D0114940F24B10FFF797
:103CD000E5F9FEE7002908BF2246019B2260012387
:103CE000C4E90F0184F8463019462046FFF78AFFE1
:103CF0009DF8103084F84C30204602B010BD00BF53
:103D00004EDD000070DD000086DD0000BEDD00003D
:103D1000F6DD0000F8B50D461746064628B90F49EE
:103D20004FF4BB70FFF7BAF9FEE748435030FFF796
:103D3000D6FC044670B1002380F8463065B100F12E
:103D400050032360C4E90F6501212046FFF75AFFA5
:103D500084F84C702046F8BD0346F2E74EDD0000C3
:103D60002DE9FF47884601921F46044628B94E496F
:103D700040F2F120FFF792F9FEE739B9036C2BB15D
:103D80004A4940F2F220FFF789F9FEE7022F08D1F5
:103D9000E36B012B05D0464940F2F320FFF77EF993
:103DA000FEE701F0F5F8064638B9019B33B1414909
:103DB00040F2F620FFF772F9FEE700264FF0000907
:103DC000DFF8F4A037E0019D1DB9FFF72DFD0020BD
:103DD00050E016B902A800F0D7FFFFF725FD00F06C
:103DE0007FFDFFF7FFFC94F84430FF2B08BF84F8F9
:103DF000449094F84530FF2B08BF84F84590FFF7B6
:103E000013FD01A902A800F0CBFF002846D1FFF75F
:103E1000E9FCA26BE36B9A422FD1FFF705FD0199F4
:103E200004F1100000F058FF2046FFF7B3FE00F049
:103E3000F1FD50B30126FFF7D5FCA26BE36B9A426C
:103E400001D3022FBFD13A4641462046FFF758FE24
:103E5000636A1BB104F1240000F056FF38B1164B21
:103E60004FF080521A60BFF34F8FBFF36F8FFFF791
:103E7000DBFC012004B0BDE8F087FFF7D5FC20464D
:103E8000FFF788FE00F0C6FDD4E74FF08053CAF874
:103E90000030BFF34F8FBFF36F8FCBE72046FFF7A4
:103EA00079FE00F0B7FD92E711DE000019DE000098
:103EB00069DE0000B0DE000004ED00E013B5002272
:103EC00000900B4601201146FFF7DAFE044638B198
:103ED000002383600360C3601A461946FFF740FF62
:103EE000204602B010BDFFFF2DE9F84389469046F9
:103EF0001F46044628B9284940F2C330FFF7CEF8E0
:103F0000FEE739B9036C2BB124494FF47170FFF708
:103F1000C5F8FEE7022F08D1E36B012B05D020493D
:103F200040F2C530FFF7BAF8FEE7FFF771FDEFF397
:103F300011864FF0180383F31188BFF36F8FBFF31F
:103F40004F8FA26BE36B9A4201D3022F22D194F8D8
:103F500045503A466DB249462046FFF7D1FD6B1CED
:103F600013D1636A0BB901200BE004F1240000F0C7
:103F7000CBFE0028F7D0B8F1000FF4D00120C8F82C
:103F8000000086F31188BDE8F88301356DB284F82E
:103F90004550E8E70020F4E711DE000019DE0000DC
:103FA00069DE000070B50D46044628B923494FF478
:103FB0008C60FFF773F8FEE7036C2BB1204940F2E9
:103FC0006440FFF76BF8FEE703683BB983682BB1E9
:103FD0001C4940F26940FFF761F8FEE7FFF718FD62
:103FE000EFF311864FF0180383F31188BFF36F8F3F
:103FF000BFF34F8FA26BE36B93421CD994F845300B
:1040000001325BB2A2635A1C10D1636A0BB9012062
:1040100009E004F1240000F077FE0028F7D0002D1D
:10402000F5D00120286086F3118870BD01335BB2A2
:1040300084F84530EBE70020F5E700BF11DE000013
:1040400006DF00001FDF00002DE9F04385B00F46BA
:104050000192044628B947494FF4A060FFF71EF8C3
:10406000FEE739B9036C2BB1434940F20450FFF726
:1040700015F8FEE700F08CFF064638B9019B33B116
:104080003E4940F20950FFF709F8FEE700264FF0DD
:104090000008DFF8EC903BE0019D1DB9FFF7C4FB81
:1040A000002052E016B902A800F06EFEFFF7BCFB3C
:1040B00000F016FCFFF796FB94F84430FF2B08BF86
:1040C00084F8448094F84530FF2B08BF84F845807D
:1040D000FFF7AAFB01A902A800F062FE00283DD16B
:1040E0002046FFF702FD98B3019904F1240000F087
:1040F000F3FD2046FFF74EFD00F08CFC38B94FF081
:104100008053C9F80030BFF34F8FBFF36F8F012684
:10411000FFF768FBA56B002DBED039462046013D58
:10412000FFF723FDA563236963B104F1100000F0DC
:10413000EBFD38B1124B4FF080521A60BFF34F8F36
:10414000BFF36F8FFFF770FB012005B0BDE8F08370
:104150002046FFF71FFD00F05DFCD8E72046FFF783
:1041600019FD00F057FC2046FFF7BFFC0028CED019
:1041700096E700BF86DF000092DF0000B0DE00009F
:1041800004ED00E02DE9FF410446019128B95849AA
:1041900040F29150FEF782FFFEE7056C2DB15549C4
:1041A00040F29550FEF77AFFFEE700F0F1FE06467A
:1041B00038B9019B53B1504940F29A50FEF76EFF57
:1041C000FEE72E460027DFF838814EE00546F9E786
:1041D000019B4BB92DB1494940F2E150FEF75EFF1A
:1041E000FEE7FFF721FB5EE016B902A800F0CCFD68
:1041F000FFF71AFB00F074FBFFF7F4FA94F8443071
:10420000FF2B08BF84F8447094F84530FF2B08BF9B
:1042100084F84570FFF708FB01A902A800F0C0FD73
:1042200000284AD12046FFF760FC00283FD02368D1
:104230003BB9FFF7D7FAA06800F0BAFE0546FFF7D2
:10424000F3FA019904F1240000F046FD2046FFF73F
:10425000A1FC00F0DFFB38B94FF08053C8F8003004
:10426000BFF34F8FBFF36F8F0126FFF7BBFAA36B2E
:10427000002BADD0013BA363236813B900F090FF7E
:10428000A060236963B104F1100000F03DFD38B176
:104290001B4B4FF080521A60BFF34F8FBFF36F8FED
:1042A000FFF7C2FA0125284604B0BDE8F081204698
:1042B000FFF770FC00F0AEFBD6E72046FFF76AFC84
:1042C00000F0A8FB2046FFF710FC0028CCD0002D02
:1042D000E9D0FFF787FA616A19B1236B1968C1F158
:1042E0000A01A06800F004FF0025FFF79DFADAE755
:1042F00086DF000006DF0000B0DE000030E00000D6
:1043000004ED00E02DE9F84389469046054628B9BA
:10431000214940F2FB60FEF7C1FEFEE739B9036CAC
:104320002BB11E4940F2FC60FEF7B8FEFEE7FFF736
:104330006FFBEFF311874FF0180383F31188BFF37E
:104340006F8FBFF34F8FAC6B1CB395F84460494639
:1043500076B22846FFF709FC013C731CAC6313D10D
:104360002B690BB901200BE005F1100000F0CCFC2B
:104370000028F7D0B8F1000FF4D00120C8F80000F1
:1043800087F31188BDE8F883013676B285F844607A
:10439000E8E72046F4E700BF11DE0000E5DF00009B
:1043A00010B5044628B9064940F28A70FEF776FE39
:1043B000FEE7FFF717FAA46BFFF736FA204610BDA9
:1043C00012DE000008B528B9064940F2B770FEF7C2
:1043D00065FEFEE790F846301BB9BDE80840FFF7E0
:1043E0008DB908BD11DE000043685B68436000F1D1
:1043F0000802934204BFC3684360436830B5DC6879
:1044000000255B689A4208BF5368D9688C420D65E5
:10441000F7D1436030BDFFFF2DE9F0410446FFF7BF
:10442000E1F92D4B2D4D1A682D4F01321A602E687F
:10443000002E46D12C601B68012B1CD1B84640468B
:104440000136FFF711FB0A2E08F11408F7D1DFF847
:10445000B880244E4046FFF707FB3046FFF704FBC9
:104460002148FFF701FB2148FFF7FEFA204BC3F874
:104470000080204B1E60204A2049136808680133E1
:104480001360E26A236401239340034314200B600A
:1044900000FB0270211DFFF7F5FAFFF7C5F9184B75
:1044A0001B6863B12B68DA6AE36A9A4207D2154B3C
:1044B0004FF080521A60BFF34F8FBFF36F8FBDE88C
:1044C000F0810F4B1B68002BD5D12B68DA6AE36AA9
:1044D0009A4298BF2C60CEE790130010B8120010DB
:1044E000C4120010B8130010D8130010F0130010FD
:1044F000BC120010C01200109C130010A01300107A
:10450000EC13001004ED00E0A413001008B5074CF4
:10451000074D4FF080562368012B04D92E60BFF35E
:104520004F8FBFF36F8FFEF7B1FDF4E7C412001099
:1045300004ED00E0064A13681968064B19B94FF0FC
:10454000FF321A6070471268D268D2685268F8E782
:10455000BC120010D013001008B528B9094940F268
:104560000E70FEF79BFDFEE74269074B9A4207D1AA
:10457000806A064B984203D0B0FA80F0400908BD2B
:104580000020FCE756E00000F0130010D8130010E4
:104590002DE9F047DDE909644FEA82094A460746FA
:1045A0000D46206BA521984602F060FE236BA9F111
:1045B0000409994429F007099DB36B1E04F13402E4
:1045C0000B3513F8011F02F8011B09B1AB42F8D1FA
:1045D000002384F83F30089D092D28BF09254FF09E
:1045E000000AE562A564201DC4F84CA0FFF747FA55
:1045F000C5F10A0504F11800FFF741FAC4F854A008
:104600002461A5616462C4F850A084F858A04246B1
:1046100039464846FFF7BCF8206006B13460BDE873
:10462000F08784F83450D6E7F8B51B4B1B4E1C6856
:104630000546306804300F46FFF747FA334640B965
:104640003168174EC96A32680120884022EA0002A8
:1046500032606A1C07D137B1196812480431BDE8CD
:10466000F840FFF70FBA1A686419546007D30E4A6E
:1046700010681968BDE8F8400431FFF70FBA0B4A1B
:10468000106819680431FFF709FA094B1A68A24249
:1046900088BF1C60F8BD00BF04140010B8120010E1
:1046A000A0130010F0130010C0120010BC12001074
:1046B000D013001070B586B0DDE90B542DB9154943
:1046C00040F24D20FEF7EAFCFEE72CB9124940F219
:1046D0004E20FEF7E3FCFEE75C260596059E5C2E69
:1046E00005D00E4940F25620FEF7D8FCFEE72563C0
:1046F000022584F8595004AD01950A9D0294009555
:10470000059EFFF745FF2046FFF786FE049806B09A
:1047100070BD00BF35E100004CE1000061E1000028
:104720002DE9F043074685B0900088461646994625
:10473000FEF7D5FF0546E8B15C20FEF7D0FF044642
:10474000A8B1002380F859300D9B056301930C9BA1
:104750000290009332464B4641463846FFF718FF19
:104760002046FFF759FE012005B0BDE8F08328463A
:10477000FEF7C4FF4FF0FF30F6E7FFFFF8B5044641
:1047800028B914494FF4AD60FEF788FCFEE7124BE0
:104790001B68834218D0FFF725F8104B65691F6826
:1047A0000F4B1E68FFF740F8BD4211D0B5420FD045
:1047B0000C4B9D420AD1A36A53B994F85830012B8F
:1047C0000CBF02200320F8BD0020FCE70120FAE71F
:1047D0000220F8E750E00000B8120010BC120010F0
:1047E000C0120010F013001070B5044628B91A4921
:1047F0004FF4E760FEF752FCFEE7184D2B6883424A
:1048000028D0FEF7EFFF2046FFF7A6FEF0B1261DE9
:104810003046FFF75AF91249E26A086801239340CB
:1048200003430B600F4B142000FB02303146FFF7AF
:1048300029F92B68E26ADB6A9A4207D30A4B4FF0E8
:1048400080521A60BFF34F8FBFF36F8FBDE8704087
:10485000FEF7EABF70BD00BFC3E00000B812001051
:10486000A0130010C412001004ED00E010B588B0D1
:10487000002407AA06A905A8CDE90544FEF72EFCE9
:10488000059B0293069B079A0F491048CDE9004308
:104890002346FFF70FFF0E4B186090B14FF018033F
:1048A00083F31188BFF36F8FBFF34F8F094B4FF026
:1048B000FF321A60084B01221A60084B1C60FFF798
:1048C00027F808B010BD00BFDBE000000D45000078
:1048D000CC130010D0130010EC13001004140010BF
:1048E000024A136801331360704700BF9813001029
:1048F0002DE9F84F3B4B1B68002B6BD13A4B1C68E2
:1049000001341C60A4B9394B1A6812682AB13849BD
:1049100040F67F20FEF7C2FBFEE7364A19681068B2
:1049200018601160344A136801331360FFF702FE08
:10493000324D334F2B68A3424FF0000B11D93A6828
:10494000304BD16A14224A439A58022A28BF4FF0AA
:10495000010B2D4A1268002A0CBF58460120BDE801
:10496000F88FDFF888A0DFF8A890DAF80020126846
:104970001AB94FF0FF322A60E1E7DAF80020D26876
:10498000D66871688C4201D22960D8E706F1040824
:104990004046FFF79AF8B16A19B106F11800FFF71F
:1049A00094F8F06AD9F80030012202FA00F11943B4
:1049B000144BC9F800104FF0140C41460CFB0030AA
:1049C000FFF760F83868F16AC26A914228BF4FF079
:1049D000010BCAE70D4A1368013313604FF0000B57
:1049E000B7E700BF9813001004140010BC120010A9
:1049F0007AE10000C0120010D4130010D013001090
:104A0000B8120010C4120010081400109413001003
:104A1000A01300102DE9F8432F4C23682BB92F4920
:104A200040F68500FEF73AFBFEE7FEF7DBFE236863
:104A3000013B236024682CB10024FEF7F5FE2046DC
:104A4000BDE8F883264B1B68002BF5D0254D264E7C
:104A5000DFF8A8801FE0EB68DC6804F1040904F1CA
:104A60001800FFF732F84846FFF72FF8E26A31687E
:104A7000012707FA02F314200B4300FB028049468A
:104A80003360FEF7FFFF194BE26A1B68DB6A9A424C
:104A900001D3174B1F602B68002BDCD10CB1FFF743
:104AA00049FD144D2C6844B1114E0127FFF720FF3A
:104AB00000B13760013CF9D12C600D4B1B68002B15
:104AC000BAD00D4B4FF080521A60BFF34F8FBFF337
:104AD0006F8F0124B1E700BF98130010DFE10000E1
:104AE00090130010D8130010A0130010B81200107B
:104AF000081400109413001004ED00E0C41200101C
:104B000008B540B90D4B4FF080521A60BFF34F8F7C
:104B1000BFF36F8F08BD0A4B196829B1094940F2EC
:104B20003C50FEF7BBFAFEE7FFF7DAFEFFF77CFD2D
:104B3000FFF770FF0028E5D0ECE700BF04ED00E0D0
:104B40009813001087E0000038B5274B1A68274BF0
:104B500012B101221A6038BD1A60FEF7CBFA244A5E
:104B6000244C1568A84204D921680B6D5B1B0344D3
:104B70000B65236810601B6B1A68B2F1A53F0BD15F
:104B80005A68B2F1A53F07D19A68B2F1A53F03D1A7
:104B9000DB68B3F1A53F04D0206821683431FEF70B
:104BA0005FFA154B1B68B3FA83F3DBB2C3F11F0343
:104BB000142212495A4388188D582DB9104940F6CD
:104BC000B730FEF76BFAFEE7456808326D6845605E
:104BD0000A44954204BF6A684260142202FB031330
:104BE0005B68DB682360B6E79813001008140010B8
:104BF0008C130010B8120010A0130010C412001083
:104C0000E0E0000070B504462A4EFEF7EBFD04B963
:104C10003468251D2846FEF758FF60B9E06A264B28
:104C2000142141435B5833B9244901220B68824067
:104C300023EA02030B60A36A1BB104F11800FEF71C
:104C400044FF29461E481F4DFEF71CFF94F85830BC
:104C5000012B04BF002384F85830FEF7E5FD2A68D5
:104C60002AB1FEF7BFFDFFF765FCFEF7DDFD3368F7
:104C7000A34212D12B688BB1134B1B682BB1134984
:104C800040F2E460FEF70AFAFEE7114B4FF0805263
:104C90001A60BFF34F8FBFF36F8F70BD084A116862
:104CA0000C4A1268914201D13360F6E7BDE87040CA
:104CB000FFF74ABFB8120010C4120010A013001072
:104CC000F0130010EC1300109813001087E00000A0
:104CD00004ED00E09013001010B50C4628B9084907
:104CE00040F6CE30FEF7DAF9FEE7064B19681831C8
:104CF000FEF7D4FE20460121BDE81040FFF794BC2A
:104D0000A1E00000B812001038B5C368DC682CB907
:104D1000164940F62940FEF7C1F9FEE704F11805EF
:104D20002846FEF7D2FE124B1B68E3B9251D284624
:104D3000FEF7CBFE0F49E26A086801239340034364
:104D40000B600D4B1420294600FB0230FEF79AFE43
:104D50000A4BE26A1B68DB6A9A4283BF084B012058
:104D60001860002038BD29460648EFE7D0E1000072
:104D700098130010A0130010C4120010B8120010F5
:104D800008140010D8130010034B1B680360034B7A
:104D90001B684360704700BFD41300100414001058
:104DA00070B50C46054628B9164940F69440FEF702
:104DB00075F9FEE729B9144940F69540FEF76EF9FA
:104DC000FEE7FEF70FFD114B196823685A1C10D03F
:104DD0000F482E6800686A68864201D08A420FD95F
:104DE000881A83420AD95B1A134423602846FFF7C6
:104DF000CBFF0024FEF718FD204670BD0023236082
:104E00000124F7E7D1E0000027E1000004140010BE
:104E1000D4130010014B01221A60704708140010CF
:104E200070B50C461646054608B91B4A156825603C
:104E300005F134026260EA6A22612A6BE2612A6C3F
:104E4000A260AA6C6261052B2A6DA2611AD0124A77
:104E50001268AA420AD100232373D6B1296B00231A
:104E6000CA5CA52A13D09B08238470BD032B23732F
:104E7000F3D1FFF735FDAB6A0BB102232373FFF7C4
:104E8000C9FDEAE72846FFF779FC2073E5E701331F
:104E9000E6E72684E9E700BFB81200102DE9F84FD5
:104EA0000D6881460C46934615B34B685B684B60B2
:104EB00001F10806B34204BFCB684B604B68D3F8DE
:104EC0000C8000254FF0240A63685B6863609E4293
:104ED00004BF736863606368DF680AFB05915B4623
:104EE00001223846FFF79CFFB84505F10105EBD1DB
:104EF0002846BDE8F88FFFFF2DE9F04705469046AC
:104F0000FFF7EEFC1D4B1B688B4234D8DFF87C901A
:104F10000A2700244FF0140A2426013F06FB045000
:104F200001220AFB0791FFF7B9FF0444002FF4D1D7
:104F3000134B0222196806FB0450FFF7AFFF114B19
:104F400004441968022206FB0450FFF7A7FF04443B
:104F500006FB045003220C49FFF7A0FF0444B8F1FC
:104F6000000F03D0FEF7C6F8C8F80000FFF752FDA7
:104F70002046BDE8F0870024F8E700BF901300103A
:104F8000BC120010C0120010F0130010C412001068
:104F9000054B1B6833B1054B1B68002B0CBF02206F
:104FA0000020704701207047EC1300109813001088
:104FB0002DE9F0410446002835D0234AC36A116820
:104FC000C96A8B42174636D28269204D002AA1BF9A
:104FD0003A68D26AC2F10A0282611426426906FB6B
:104FE00003539A4221D100F104084046FEF76DFDBB
:104FF000174B48B9E06A4643AA592AB91A680121F1
:10500000814022EA01021A603A681968D26AE262B3
:10501000012404FA02F0084318601420414600FB02
:105020000250FEF72FFD204603E03B68DB6AC362B7
:105030000120BDE8F0811368806CDC6AA0422CBFBF
:1050400000200120F5E700BFB8120010C4120010C4
:10505000A0130010F8B5044608B90020F8BD1F4B96
:105060001B68834205D01E4940F6D170FEF716F842
:10507000FEE7DB6C2BB91B4940F6D270FEF70EF849
:10508000FEE7C16A826C013B9142C364E5D0002B0C
:10509000E3D1051D2846FEF718FD134E134A50B9FB
:1050A000E76A1421794373582BB913680120B8407B
:1050B00023EA00031360A36CE362C3F10A01A16158
:1050C0001168012404FA03F008431060142000FB67
:1050D00003602946FEF7D6FC2046BFE7B812001051
:1050E000A5E10000BBE10000C4120010A0130010F5
:1050F000F8B50446002847D0C26C2AB923494FF4BA
:105100008150FDF7CBFFFEE7836C994238BF19460B
:10511000C36A8B4238D0012A36D11D4A12688242B6
:1051200005D11C4941F23B00FDF7B8FFFEE782695B
:10513000194DC162002A4FF014064269A8BFC1F19F
:105140000A0106FB0353A8BF81619A421CD1071DC7
:105150003846FEF7BAFCE26A104C40B95643AB59E8
:105160002BB923680121914023EA010323602168C0
:10517000012393400B4314202360394600FB025067
:10518000BDE8F840FEF77EBCF8BD00BFBBE1000003
:10519000B8120010ADE00000C4120010A0130010FF
:1051A000044B1A681AB11968CA6C0132CA641868CB
:1051B000704700BFB812001070B5FFF791FB144D97
:1051C0000A241426013C06FB04F3E818EB580BB143
:1051D000FFF70AF9002CF5D10E4B1A68126812B1CC
:1051E0001868FFF701F90C4B1A68126812B11868B9
:1051F000FFF7FAF8094803680BB1FFF7F5F8084B19
:1052000000221A60FDF780FFBDE87040FFF702BC86
:10521000C4120010BC120010C0120010F0130010D5
:105220008C13001010B5FDF765FF064B064A196890
:1052300029B1196814680B6D1B1B03440B651060C2
:1052400010BD00BFB81200108C13001008B5FDF798
:1052500051FF014B186008BD8C13001038B50122B6
:105260000221002000F083F901220321002000F038
:105270007EF904220021012000F079F901210422A5
:10528000084600F074F904221146012000F06FF97D
:105290000821012000F0DAF9284B4FF480729A615E
:1052A0000921012000F0AEF902220A21002000F0BD
:1052B0005EF902220B210546002000F058F9044651
:1052C000284600F069F9204600F066F90321022023
:1052D00000F0BCF91A4B1B4D18701A21012000F088
:1052E000B5F9194B194C18701821012000F0AEF9CE
:1052F000174B12211870012000F0A8F9154B13214B
:105300001870012000F07EF90F212870012000F0B4
:1053100079F91E212070002000F074F90E4B1D2138
:105320001870002000F06EF90C4B1870287800F00F
:1053300043F92078BDE8384000F03EB920800920CC
:105340000C140010101400100D1400101114001093
:105350000E1400100F14001012140010131400107B
:10536000024B4FF48072DA61704700BF2080092041
:10537000024B4FF480729A61704700BF2080092071
:10538000034B586980F40070C0F34020704700BFA1
:1053900020800920014B1878704700BF0C140010C2
:1053A000014B1878704700BF0D140010014B18789E
:1053B000704700BF0E140010014B1878704700BFF3
:1053C0000F14001070B504220021012000F0CFF866
:1053D0001F4E204C307004221146012000F0C7F807
:1053E000012104222070084600F0C1F81A4D2870EF
:1053F000307800F01BF9287800F018F9207800F0D8
:10540000EFF800221621104600F0B1F80022122118
:10541000104600F0ACF800221121104600F0A7F869
:10542000002210460B2100F0A2F80C4B187000F07F
:10543000D7F80B4B1A6842F480021A601A6842F4DB
:1054400080221A601A6842F400321A6070BD00BFF0
:10545000CD240010CF240010CC240010CE24001046
:1054600000800920054B4FF400329A614FF480020E
:105470009A614FF480229A61FFF7A4BF008009204F
:10548000024B4FF480229A61704700BF00800920D0
:10549000024B4FF48022DA61704700BF0080092080
:1054A00038B5044C4FF40035E561C820FDF796FC93
:1054B000A56138BD00800920014B187800F0DAB8EA
:1054C000CE240010F8B507460E461546FFF7F4FF48
:1054D0000028FBD00B4C4FF48003E361022000F066
:1054E00005FF384600F002FF304600F0FFFE284678
:1054F00000F0FCFEFFF7E0FF0028FBD04FF4800334
:10550000A361F8BD0080092008B5FFF7ABFFFFF7E6
:10551000C7FF402211460B20FFF7D4FF0A2000F0FE
:10552000C3FE002210464821FFF7CCFF0022602175
:105530000320FFF7C7FF4522AC210520BDE8084046
:10554000FFF7C0BFC0F3C40300F007029B0003EBEA
:10555000C21303F1804303F5303301F007011A68E9
:1055600022F007021A601A6811431960704738B5B3
:1055700000F007054FF0000001F01F0465F3020082
:1055800064F3C7001146FFF7DDFF4FF0000065F33D
:10559000020064F3C70038BDC0F3C40300F0070283
:1055A0009B0003EBC21303F1804303F530331A6809
:1055B00042F480621A607047C0F3C40300F007022F
:1055C0009B0003EBC21303F1804303F530331A68E9
:1055D00022F018021A601A6842F008021A60704736
:1055E00000F00702064B53F82210C0F3C4000B680A
:1055F000012202FA00F023EA00030B60704700BFAB
:10560000F4E1000038B500F007054FF0000001F0AC
:105610001F0465F3020064F3C700FFF7E1FF4FF0DA
:10562000000065F3020064F3C70038BD00F0070214
:10563000054B53F82220C0F3C403116801209840A1
:1056400008431060704700BFF4E1000038B500F077
:1056500007054FF0000001F01F0465F3020064F33A
:10566000C700FFF7E3FF4FF0000065F3020064F3AB
:10567000C70038BD00F00702064B53F82230C0F3D4
:10568000C4005A69012303FA00F0104214BF1846FF
:1056900000207047F4E1000000F00702044BC0F363
:1056A000C40053F82220012303FA00F090617047F0
:1056B000F4E1000000F00702044BC0F3C40053F80B
:1056C0002220012303FA00F0D0617047F4E10000CA
:1056D00008B50146FFF7CEFF20B10846BDE80840F7
:1056E000FFF7E8BF0846BDE80840FFF7D5BFFFFF5A
:1056F0002DE9F8430F4F0C2444433E198846357971
:105700002846914600F012FC3C5900233F2263607A
:105710004946A360284622606361B268A361E361E1
:105720002362636200F026FC0123C4F80C806360EE
:10573000BDE8F8830CE200000C235843064B1B58CD
:1057400030B501205C6901EB4105A8402043586158
:10575000183343F8212030BD0CE200000C235843DD
:10576000034B1A58012303FA01F11160704700BF7F
:105770000CE200000C235843014B1B5898687047FB
:105780000CE200000C235843014B1B5899607047F2
:105790000CE200002DE9F047089F344E92461A1C97
:1057A00018BF012298463B1C18BF01239A420546A8
:1057B0000C4613D1002433682D48D96801F000FD50
:1057C00033682A7C2B49D86801F042FC33680A20F0
:1057D000D96801F087FC2046BDE8F0874FF0FF3123
:1057E000C068FEF7CFFC0028E4D0FFF7D1FB002112
:1057F0008146A868FEF7C6FC00232B74099BEB6169
:1058000033686C7485F812A0D9681948C5E9058712
:1058100001F0D6FC33681849D868224601F018FC1C
:1058200033680A20D96801F05DFC2B682022B9F1A9
:10583000020F1A6010D140F6B831A868FEF7A2FC3A
:1058400088B12C7CB4FA84F4640900231A46194602
:10585000E868FEF785FAAEE70021A868FEF792FC3B
:105860000028F9D0EDE70446EFE700BFA8010010DB
:1058700073E20000A6E2000078E20000F7B5524FA4
:1058800004683B686668D9680546504801F098FC92
:105890003B684F49D868324601F0DAFB3B680A2082
:1058A000D96801F01FFC282E59D00CD8102E2ED00C
:1058B000182E32D0082E0BD16B7C03F0FE03A360B0
:1058C000A66103B0F0BD402E63D00DD8382E77D03E
:1058D00063682B742023A361102323600823A36132
:1058E0002368DB06FCD424E0502E5BD0582EEFD189
:1058F0006B69A2681A700023EB612023A361102357
:1059000023600823A3612368DA06FCD411E06B7CD2
:1059100043F00103A36008231FE0E9692022A2618C
:105920000823C1B9A26110222260A3612368DE06A8
:10593000FCD4002301A9A8680193FEF733FB019B67
:10594000002BBED0234B4FF080521A60BFF34F8F15
:10595000BFF36F8FB5E7AA7CA260A361B1E76B7C50
:10596000D80702D520232360D5E7EB694BB9202364
:10597000A361102323600823A3612368D906FCD404
:10598000D7E7AA69013B12F8011BA160AA61EB618C
:10599000C1E72023A361EB69012B4FF00403E2D898
:1059A000A361B8E76B69A2681A706B6901336B6118
:1059B000EB69013B012BEB614FF00403D3D1EFE71F
:1059C00063682B74B5E700BFA801001073E2000004
:1059D00060E2000004ED00E00148FFF74FBF00BFA8
:1059E0009C0000100148FFF749BF00BF7C00001079
:1059F0000148FFF743BF00BF5C0000102DE9F047EE
:105A00001546284A0646894607CA86B006AC04E908
:105A1000070040F60A32ADF808200C228DF80A2063
:105A20002149DDF838A072018F188C5806AA32443B
:105A3000012012F8108C0322009200221146FEF77A
:105A40001FF95146B8600120FEF738FAF860404669
:105A500000F06CFA6C23A361144A154B914588BF82
:105A600099462823B5FBF9F25208C8215343B3FBEA
:105A7000F1F323613C235A430023B2FBF1F262614C
:105A8000A36263622362E3604023236006AB03EBFF
:105A900086067A6856F80C1C404606B0BDE8F0470A
:105AA00000F068BA54E200005C00001040420F00B1
:105AB000A086010013B5049C019400240094044CBA
:105AC00041F0010104EB4010FFF764FE02B010BD8D
:105AD0005C0000101FB500238DF80F3001230093E8
